{
  "address": "0xECa5aEb36CB20Ba4c4346450cCeF53469906A511",
  "abi": [
    {
      "inputs": [
        {
          "internalType": "contract DataLayer",
          "name": "_dataLayer",
          "type": "address"
        }
      ],
      "stateMutability": "nonpayable",
      "type": "constructor"
    },
    {
      "inputs": [
        {
          "internalType": "bytes32",
          "name": "schemaName",
          "type": "bytes32"
        },
        {
          "internalType": "uint256[]",
          "name": "row",
          "type": "uint256[]"
        },
        {
          "internalType": "uint64",
          "name": "k",
          "type": "uint64"
        },
        {
          "internalType": "enum KNN.Distance",
          "name": "distance",
          "type": "uint8"
        }
      ],
      "name": "getKNN",
      "outputs": [
        {
          "internalType": "uint256[][]",
          "name": "",
          "type": "uint256[][]"
        }
      ],
      "stateMutability": "view",
      "type": "function"
    },
    {
      "inputs": [
        {
          "internalType": "uint256[][]",
          "name": "analyticsData",
          "type": "uint256[][]"
        },
        {
          "internalType": "uint256[]",
          "name": "row",
          "type": "uint256[]"
        },
        {
          "internalType": "uint64",
          "name": "k",
          "type": "uint64"
        },
        {
          "internalType": "enum KNN.Distance",
          "name": "distance",
          "type": "uint8"
        }
      ],
      "name": "getKNNOffChainData",
      "outputs": [
        {
          "internalType": "uint256[][]",
          "name": "",
          "type": "uint256[][]"
        }
      ],
      "stateMutability": "pure",
      "type": "function"
    },
    {
      "inputs": [
        {
          "internalType": "address",
          "name": "userAddress",
          "type": "address"
        },
        {
          "internalType": "uint64",
          "name": "k",
          "type": "uint64"
        }
      ],
      "name": "getRecommendedSimilarUsers",
      "outputs": [
        {
          "internalType": "address[][]",
          "name": "",
          "type": "address[][]"
        }
      ],
      "stateMutability": "view",
      "type": "function"
    },
    {
      "inputs": [
        {
          "internalType": "uint256",
          "name": "userIndex",
          "type": "uint256"
        },
        {
          "internalType": "uint256[][]",
          "name": "similarityMatrix",
          "type": "uint256[][]"
        },
        {
          "internalType": "uint64",
          "name": "k",
          "type": "uint64"
        }
      ],
      "name": "recommend",
      "outputs": [
        {
          "internalType": "address[][]",
          "name": "",
          "type": "address[][]"
        }
      ],
      "stateMutability": "view",
      "type": "function"
    },
    {
      "inputs": [],
      "name": "totalCategories",
      "outputs": [
        {
          "internalType": "uint256",
          "name": "",
          "type": "uint256"
        }
      ],
      "stateMutability": "view",
      "type": "function"
    },
    {
      "inputs": [
        {
          "internalType": "uint256",
          "name": "",
          "type": "uint256"
        },
        {
          "internalType": "uint256",
          "name": "",
          "type": "uint256"
        }
      ],
      "name": "userActivityMatrix",
      "outputs": [
        {
          "internalType": "uint256",
          "name": "",
          "type": "uint256"
        }
      ],
      "stateMutability": "view",
      "type": "function"
    }
  ],
  "transactionHash": "0x00f69e480787e0b4f1fa337fde2c78218865de4d9d5badd4c22216d8d6f2cd9b",
  "args": [
    "0xFD905BD593fD603F4309CB686f9a11DC881483e1"
  ],
  "numDeployments": 1,
  "solcInputHash": "9471fd72183e1372e64a62ad6ee06773",
  "bytecode": "0x608080604052346200013a57602081620015948038038091620000238285620003c9565b8339810103126200013a57516001600160a01b038116908190036200013a57600080546001600160a01b031916821781556040516306be2b4160e01b81526004929091908290849082905afa90811562000148576000916200027d575b508051680100000000000000008082116200026857600192835483855580841062000206575b5060200190836000526020600020906000925b8484106200015457600054604051631c93ad8560e11b81529060209082908a9082906001600160a01b03165afa90811562000148576000916200010b575b5060025560405161117890816200041c8239f35b90506020813d6020116200013f575b816200012960209383620003c9565b810103126200013a575181620000f7565b600080fd5b3d91506200011a565b6040513d6000823e3d90fd5b80518051906001600160401b038211620001f157838211620001f1578454828655808310620001c3575b5090602088920185600052602060002060005b838110620001ae57505050506020819201930193019291620000b9565b8251828201558a946020909301920162000191565b856000528883602060002092830192015b828110620001e45750506200017e565b60008155018990620001d4565b604189634e487b7160e01b6000525260246000fd5b846000528484602060002092830192015b82811062000227575050620000a6565b805460008255806200023e575b5001859062000217565b816000526020600020908101905b8181106200025b575062000234565b600081558893016200024c565b604184634e487b7160e01b6000525260246000fd5b90503d806000833e620002918183620003c9565b60208282810103126200013a5781516001600160401b0381116200013a57818301601f8285010112156200013a5780830151620002ce8162000403565b93620002de6040519586620003c9565b818552602085019084810160208460051b8684010101116200013a57602084820101915b60208460051b8684010101831062000321575050505050503862000080565b82516001600160401b0381116200013a57868301603f82888601010112156200013a57602081878501010151620003588162000403565b91620003686040519384620003c9565b818352602083019089860160408460051b838c8a01010101116200013a576040818a88010101915b60408460051b838c8a010101018310620003b857505050908252506020928301920162000302565b825181526020928301920162000390565b601f909101601f19168101906001600160401b03821190821017620003ed57604052565b634e487b7160e01b600052604160045260246000fd5b6001600160401b038111620003ed5760051b6020019056fe6040608081526004908136101561001557600080fd5b6000803560e01c8063193ba7b41461034c5780631e2a861b146102c55780632a45e1ed1461025857806339275b0a146102395780634accf88b146100bb5763cf853e191461006257600080fd5b346100b85760603660031901126100b857602435906001600160401b0382116100b857506100b49261009a6100a9923690830161065b565b6100a26105b3565b9135610c0a565b905191829182610740565b0390f35b80fd5b5091346102355781600319360112610235576001600160a01b0381358181169491929085900361023157602435946001600160401b0393848716870361022d5760019485549561010a8761098e565b96815b8181106101965750505050906024602092855416938751948593849263cb0e0d7d60e01b84528301525afa91821561018b578092610155575b6100b4856100a9888787610c0a565b9091506020823d8211610183575b8161017060209383610502565b810103126100b8575051816100b4610146565b3d9150610163565b8451903d90823e3d90fd5b61019f826107dc565b6101a9828b610833565b526101b4818a610833565b508280805b6101ce575b50506101c99061080e565b61010d565b8a86821685811015610226579061021a61022093926102148761020e6101fc6101f6836106db565b506109dd565b6102086101f6896106db565b90610ed4565b94610833565b51610833565b526109c5565b816101b9565b50506101be565b8380fd5b5080fd5b8280fd5b5090346102315781600319360112610231576020906002549051908152f35b50913461023557816003193601126102355735916024359260015481101561023157600182527fb10e2d527612073b26eecdfd717e6a320cf44b4afac2b0732d9fcbe2b7fa0cf6019081548410156100b857506020926102b791610728565b91905490519160031b1c8152f35b509134610235576080366003190112610235576001600160401b038135818111610348576102f6903690840161065b565b916024359182116103485761030d91369101610550565b926103166105b3565b936064359160028310156100b85750916103386100b4959261033d9483610847565b610abf565b9051918291826105c9565b8480fd5b509134610235576080366003190112610235576001600160401b03926024358481116102315761037f9036908401610550565b6103876105b3565b946064359260028410156100b85780548651630596815760e21b81528635968101969096528190869060249082906001600160a01b03165afa9485156104f65781956103e2575b6100b48761033d8a896103388a8a83610847565b90919294503d8083833e6103f68183610502565b8101602091828183031261022d5780519085821161034857019080601f8301121561022d5781519061042782610539565b956104348a519788610502565b828752848088019360051b850101938285116104f257858101935b858510610473575050505050505050916103386100b4959261033d819497506103ce565b84518381116104ee57820184603f820112156104ee5780888e92015161049881610539565b926104a581519485610502565b8184528a84019160051b830101918783116104ea57918f8b94929593015b8181106104da57505082935081520194019361044f565b80518652948401948b94016104c3565b8b80fd5b8880fd5b8680fd5b508551903d90823e3d90fd5b90601f801991011681019081106001600160401b0382111761052357604052565b634e487b7160e01b600052604160045260246000fd5b6001600160401b0381116105235760051b60200190565b81601f820112156105ae5780359161056783610539565b926105756040519485610502565b808452602092838086019260051b8201019283116105ae578301905b82821061059f575050505090565b81358152908301908301610591565b600080fd5b604435906001600160401b03821682036105ae57565b602080820190808352835180925260408301928160408460051b830101950193600080925b8584106105ff575050505050505090565b9091929380959697603f1983820301855288519082808351928381520192019085905b8082106106425750505090806001929901940194019295949391906105ee565b9193806001929486518152019401920188939291610622565b9080601f830112156105ae5781359061067382610539565b926106816040519485610502565b828452602092838086019160051b830101928084116105ae57848301915b8483106106af5750505050505090565b82356001600160401b0381116105ae5786916106d084848094890101610550565b81520192019161069f565b6001548110156107125760016000527fb10e2d527612073b26eecdfd717e6a320cf44b4afac2b0732d9fcbe2b7fa0cf60190600090565b634e487b7160e01b600052603260045260246000fd5b80548210156107125760005260206000200190600090565b602080820190808352835180925260408301928160408460051b830101950193600080925b858410610776575050505050505090565b9091929380959697603f1983820301855288519082808351928381520192019085905b8082106107b9575050509080600192990194019401929594939190610765565b82516001600160a01b031684528994938401939092019160019190910190610799565b906107e682610539565b6107f36040519182610502565b8281528092610804601f1991610539565b0190602036910137565b600019811461081d5760010190565b634e487b7160e01b600052601160045260246000fd5b80518210156107125760209160051b010190565b9190825190610855826107dc565b93600190815b84811061086b5750505050505090565b6108758183610833565b5190600287101561095c57848785036108aa57610895906108a593610ed4565b61089f828a610833565b5261080e565b61085b565b5090836000918183925b6108c9575b505050906108956108a5926110b9565b90919282518410156109545761092d906108e38585610833565b516108ee868b610833565b511015610935576109279061092161091c8b6109158961090e818b610833565b5192610833565b5190610a2c565b610f28565b90610ab2565b9361080e565b9190806108b4565b6109279061092161091c610949888d610833565b516109158989610833565b9250806108b9565b60246000634e487b7160e01b81526021600452fd5b60005b82811061098057505050565b606082820152602001610974565b906109c361099b83610539565b6109a86040519182610502565b838152602081946109bb601f1991610539565b019101610971565b565b6001600160401b0380911690811461081d5760010190565b9060405191828154918282526020928383019160005283600020936000905b828210610a12575050506109c392500383610502565b8554845260019586019588955093810193909101906109fc565b9190820391821161081d57565b60405190604082018281106001600160401b038211176105235760405260006020838281520152565b90610a6c82610539565b610a796040519182610502565b8281528092610a8a601f1991610539565b019060005b828110610a9b57505050565b602090610aa6610a39565b82828501015201610a8f565b9190820180921161081d57565b8051929392600019810190811161081d57610ad990610a62565b916000946001955b8351871015610b3657610af2610a39565b878152610aff8886610833565b516020820152610b0f8287610833565b52610b1a8186610833565b506001810180911161081d57610b30909661080e565b95610ae1565b5094509291610b459150610fea565b916001600160401b0380941692610b5b8461098e565b926000945b8686169681881015610bff57610b8b610b84610b7c8a87610833565b515187610833565b51516107dc565b610b958988610833565b52610ba08887610833565b5060005b610bb1610b7c8a87610833565b5151811015610beb5780610bd7610be692610214610bcf8d8a610833565b51518a610833565b5161089f826102148d8c610833565b610ba4565b5095610bf89197506109c5565b9495610b60565b505094505050905090565b90610c158282610833565b5151600019810190811161081d57610c2c90610a62565b9160009460015b610c3d8385610833565b5151811015610ca357828103610c5c575b610c579061080e565b610c33565b95610c65610a39565b878152610c76886102148688610833565b516020820152610c868287610833565b52610c918186610833565b506001810180911161081d5795610c4e565b5094505050610cb190610fea565b9060025491610cbf83610539565b90610ccd6040519283610502565b838252610ce9601f19610cdf86610539565b0160208401610971565b60005b6001600160401b0384166001600160401b0382161015610e99576000805b868110610d21575050610d1c906109c5565b610cec565b610d336001600160401b038716610539565b610d406040519182610502565b6001600160401b038716808252601f1990610d5a90610539565b01366020830137610d6b8287610833565b52610d768186610833565b50610d9e81610d98610d916001600160401b03871688610833565b51516106db565b50610728565b90549060031b1c610db8575b610db39061080e565b610d0a565b6000549091906001600160a01b03166020610ddc6001600160401b03861687610833565b5151602460405180948193632a2d0c4760e01b835260048301525afa908115610e8d57600091610e4a575b5090600191610e2b6001600160401b03610e21868a610833565b5193168093610833565b90838060a01b03169052016001600160401b03811161081d5790610daa565b6020813d602011610e85575b81610e6360209383610502565b810103126102315751906001600160a01b03821682036100b857506001610e07565b3d9150610e56565b6040513d6000823e3d90fd5b505091505090565b8181029291811591840414171561081d57565b8115610ebe570490565b634e487b7160e01b600052601260045260246000fd5b610efd610ef1610ef6610ef1610eea86866110f7565b94806110f7565b6110b9565b93806110f7565b916127109182810292818404149015171561081d57610f2592610f1f91610ea1565b90610eb4565b90565b6000908015610fe6578080600114610fde57600214610fd6576001918261013383101683600b84101617610fc65760028392935b808211610f8957505082600019048211610f7557500290565b634e487b7160e01b81526011600452602490fd5b909380600019048111610fb257818516610fa9575b800293811c90610f5c565b80930292610f9e565b634e487b7160e01b83526011600452602483fd5b929150600283910a92610f755750565b509060049150565b505050600190565b5090565b80519091600090600019908184019084821190815b61081d57828510156110b15760005b6110188688610a2c565b85810190811161081d5781101561109b5760209081611037828b610833565b510151600182019081831161081d5761106393611054838d610833565b51015110611068575b5061080e565b61100e565b611072818b610833565b5190611089611081848d610833565b51918c610833565b52611094828b610833565b523861105d565b509190936110a89061080e565b93909181610fff565b945050505050565b600180820180831161081d57811c90825b8383106110d75750505090565b909192506110ee836110e98184610eb4565b610ab2565b821c91906110ca565b9081518151036105ae57600091825b815184101561113b57610927611135916110e96111238786610833565b5161112e8888610833565b5190610ea1565b92611106565b925050509056fea2646970667358221220b9658b2853a7e79a7d19194b876c65e59b7987b1b57c50981d7087435ce4083064736f6c63430008110033",
  "devdoc": {
    "kind": "dev",
    "methods": {},
    "version": 1
  },
  "userdoc": {
    "kind": "user",
    "methods": {},
    "version": 1
  },
  "storageLayout": {
    "storage": [
      {
        "astId": 1585,
        "contract": "contracts/KNN.sol:KNN",
        "label": "dataLayer",
        "offset": 0,
        "slot": "0",
        "type": "t_contract(DataLayer)1579"
      },
      {
        "astId": 1589,
        "contract": "contracts/KNN.sol:KNN",
        "label": "userActivityMatrix",
        "offset": 0,
        "slot": "1",
        "type": "t_array(t_array(t_uint256)dyn_storage)dyn_storage"
      },
      {
        "astId": 1591,
        "contract": "contracts/KNN.sol:KNN",
        "label": "totalCategories",
        "offset": 0,
        "slot": "2",
        "type": "t_uint256"
      }
    ],
    "types": {
      "t_array(t_array(t_uint256)dyn_storage)dyn_storage": {
        "base": "t_array(t_uint256)dyn_storage",
        "encoding": "dynamic_array",
        "label": "uint256[][]",
        "numberOfBytes": "32"
      },
      "t_array(t_uint256)dyn_storage": {
        "base": "t_uint256",
        "encoding": "dynamic_array",
        "label": "uint256[]",
        "numberOfBytes": "32"
      },
      "t_contract(DataLayer)1579": {
        "encoding": "inplace",
        "label": "contract DataLayer",
        "numberOfBytes": "20"
      },
      "t_uint256": {
        "encoding": "inplace",
        "label": "uint256",
        "numberOfBytes": "32"
      }
    }
  }
}