{
  "address": "0x65caDEed7CeE4bB71fDF72Fd1feEFd134fD6E292",
  "abi": [
    {
      "inputs": [
        {
          "internalType": "contract DataLayer",
          "name": "_dataLayer",
          "type": "address"
        }
      ],
      "stateMutability": "nonpayable",
      "type": "constructor"
    },
    {
      "inputs": [
        {
          "internalType": "int256[][]",
          "name": "X",
          "type": "int256[][]"
        },
        {
          "internalType": "int256[]",
          "name": "y",
          "type": "int256[]"
        },
        {
          "internalType": "int256",
          "name": "learningRate",
          "type": "int256"
        },
        {
          "internalType": "uint256",
          "name": "iterations",
          "type": "uint256"
        },
        {
          "internalType": "int256",
          "name": "bias",
          "type": "int256"
        }
      ],
      "name": "fit",
      "outputs": [
        {
          "internalType": "int256[]",
          "name": "",
          "type": "int256[]"
        }
      ],
      "stateMutability": "pure",
      "type": "function"
    },
    {
      "inputs": [
        {
          "internalType": "bytes32",
          "name": "schemaName",
          "type": "bytes32"
        },
        {
          "internalType": "uint256[]",
          "name": "trainingColIndices",
          "type": "uint256[]"
        },
        {
          "internalType": "uint256",
          "name": "labelColIndex",
          "type": "uint256"
        },
        {
          "internalType": "int256[][]",
          "name": "testData",
          "type": "int256[][]"
        },
        {
          "internalType": "int256",
          "name": "learningRate",
          "type": "int256"
        },
        {
          "internalType": "uint256",
          "name": "iterations",
          "type": "uint256"
        },
        {
          "internalType": "int256",
          "name": "bias",
          "type": "int256"
        }
      ],
      "name": "getLinearRegression",
      "outputs": [
        {
          "internalType": "int256[]",
          "name": "",
          "type": "int256[]"
        }
      ],
      "stateMutability": "view",
      "type": "function"
    },
    {
      "inputs": [
        {
          "internalType": "int256[][]",
          "name": "analyticsData",
          "type": "int256[][]"
        },
        {
          "internalType": "int256[]",
          "name": "labels",
          "type": "int256[]"
        },
        {
          "internalType": "int256[][]",
          "name": "testData",
          "type": "int256[][]"
        },
        {
          "internalType": "int256",
          "name": "learningRate",
          "type": "int256"
        },
        {
          "internalType": "uint256",
          "name": "iterations",
          "type": "uint256"
        },
        {
          "internalType": "int256",
          "name": "bias",
          "type": "int256"
        }
      ],
      "name": "getLinearRegressionOffChainData",
      "outputs": [
        {
          "internalType": "int256[]",
          "name": "",
          "type": "int256[]"
        }
      ],
      "stateMutability": "pure",
      "type": "function"
    },
    {
      "inputs": [
        {
          "internalType": "int256[][]",
          "name": "X",
          "type": "int256[][]"
        },
        {
          "internalType": "int256",
          "name": "bias",
          "type": "int256"
        },
        {
          "internalType": "int256[]",
          "name": "weights",
          "type": "int256[]"
        }
      ],
      "name": "predict",
      "outputs": [
        {
          "internalType": "int256[]",
          "name": "",
          "type": "int256[]"
        }
      ],
      "stateMutability": "pure",
      "type": "function"
    }
  ],
  "transactionHash": "0x905ad678b05d2a1117078b11faf987cc1cfc7ffae5fc5d3f83dcc900275a9202",
  "args": [
    "0x1FF077B9f023CA6FDE5d299B7ab758E6f93B5D68"
  ],
  "numDeployments": 3,
  "solcInputHash": "19609204036b5cf7008b569ad08610fa",
  "bytecode": "0x60803461007457601f610bb738819003918201601f19168301916001600160401b038311848410176100795780849260209460405283398101031261007457516001600160a01b0381169081900361007457600080546001600160a01b031916919091179055604051610b2790816100908239f35b600080fd5b634e487b7160e01b600052604160045260246000fdfe60806040815260c06040526004908136101561001a57600080fd5b600091823560e01c806330eba3ba146101b6578063ac9126a31461015b578063c9b76701146100ce5763e689266d1461005257600080fd5b346100ca5760a03660031901126100ca5767ffffffffffffffff81358181116100c65761008290369084016105bc565b936024359182116100c35750926100a26100b3926100bf95369101610559565b6084359160643591604435916107a8565b9051519182918261063d565b0390f35b80fd5b8480fd5b8280fd5b5091346100c35760c03660031901126100c35767ffffffffffffffff9280358481116100ca5761010190369083016105bc565b93602435818111610157576101199036908401610559565b926044359182116100c357509161015161013d6100bf96936100b3953691016105bc565b9260a43592839160843591606435916107a8565b91610a5b565b8380fd5b50346100ca5760603660031901126100ca5767ffffffffffffffff81358181116100c65761018c90369084016105bc565b936044359182116100c35750926101ac6100b3926100bf95369101610559565b9060243590610a5b565b50346100ca5760e03660031901126100ca5767ffffffffffffffff906024358281116100c657366023820112156100c65780820135946101f586610541565b926102038651519485610509565b86845260a092602084526020850160246005998a1b830101913683116100c657602401905b8282106104f9575050506064358581116100ca5761024990369083016105bc565b9460c435978360018060a01b038154169360248a515180968193630596815760e21b83528035908301525afa9283156104ee5784936103e4575b5050509283519261029384610541565b936102a18851519586610509565b8085526102b0601f1991610541565b0190835b8281106103d1575050506102c88451610678565b9360019260443584805b6102f3575b6100bf8a6100b38b8e610151818e8e60a43591608435916107a8565b83518110156103cc57908493929161030c879651610678565b610316828a6106f2565b5261032181896106f2565b5061033f6103398361033384886106f2565b516106f2565b51610706565b610349828b6106f2565b5282865b610366575b5061035c906106aa565b90919293946102d2565b8886979293949596518210156103bf57906103b3916103ad82610333876103a76103398e6103a08f6103998689926106f2565b51926106f2565b51906106f2565b946106f2565b526106aa565b8196959493929161034d565b5095949392919095610352565b6102d7565b81516060878301909101528151016102b4565b909192503d8085833e6103f78183610509565b8101908551818303126100c6578051908482116104ea57019181601f840112156100c65782519161042783610541565b946104358b51519687610509565b8386528751948580880195851b820101958387116104e6578101945b8686106104675750505050505050388080610283565b85518381116104e257820184603f820112156104e2578a51810151908e61048d83610541565b9261049b8251519485610509565b8084528d518401915180918a1b840101928884116104de5701905b8282106104ce57505050815289519586019501610451565b815181528d5191820191016104b6565b8d80fd5b8980fd5b8880fd5b8580fd5b8851513d86823e3d90fd5b8135815285519182019101610228565b90601f8019910116810190811067ffffffffffffffff82111761052b57604052565b634e487b7160e01b600052604160045260246000fd5b67ffffffffffffffff811161052b5760051b60200190565b81601f820112156105b75780359161057083610541565b9261057e6040519485610509565b808452602092838086019260051b8201019283116105b7578301905b8282106105a8575050505090565b8135815290830190830161059a565b600080fd5b9080601f830112156105b7578135906105d482610541565b926105e26040519485610509565b828452602092838086019160051b830101928084116105b757848301915b8483106106105750505050505090565b823567ffffffffffffffff81116105b757869161063284848094890101610559565b815201920191610600565b6020908160408183019282815285518094520193019160005b828110610664575050505090565b835185529381019392810192600101610656565b9061068282610541565b61068f6040519182610509565b82815280926106a0601f1991610541565b0190602036910137565b60001981146106b95760010190565b634e487b7160e01b600052601160045260246000fd5b8051156106dc5760200190565b634e487b7160e01b600052603260045260246000fd5b80518210156106dc5760209160051b010190565b90633b9aca00918281029281840514901517156106b957565b818102929160008212600160ff1b8214166106b95781840514901517156106b957565b811561075d57600160ff1b81146000198314166106b9570590565b634e487b7160e01b600052601260045260246000fd5b919091600083820193841291129080158216911516176106b957565b818103929160001380158285131691841216176106b957565b909281518451036109fa576107c96107c2839695966106cf565b5151610678565b9460005b8281106107dd5750505050505090565b6107ea8498939851610678565b956107f76107c2866106cf565b6000936001955b875187101561089057878b8b9c9d869c999a9b9c9389945b61081f856106cf565b515186101561086c5761086061086691633b9aca008f610859906108528b61033361084a828d6106f2565b51938d6106f2565b519061071f565b0590610773565b956106aa565b94610816565b9250949961088394508b93509a6103ad919b6106f2565b95909a999897969a6107fe565b979198929499909395509995996001965b8b5188101561096a57908392916108d06108be8a8f9998976106f2565b516108c98b886106f2565b519061078f565b9960005b6108dd896106cf565b515181101561093b57808d6103ad828f8f8e61091a6109136109309461090d6109369b61033361092097876106f2565b5161071f565b9151610706565b90610742565b61092a83866106f2565b51610773565b926106f2565b6108d4565b50989b610956610962939b61095c9395969798995190610742565b90610773565b9a6106aa565b9697906108a1565b93919a99949596509796915060005b6109828a6106cf565b51518110156109c557806109b6633b9aca006109a58e6108526109c0968e6106f2565b056109b0838d6106f2565b5161078f565b6103ad828c6106f2565b610979565b50969794926109ec9199965093633b9aca006109e56109f294968961071f565b059061078f565b916106aa565b9490946107cd565b60405162461bcd60e51b815260206004820152603360248201527f4665617475726520616e64206c6162656c20617272617973206d7573742068616044820152723b32903a34329039b0b6b2903632b733ba341760691b6064820152608490fd5b9190825192610a6984610678565b93600090815b818310610a7f5750505050505090565b849597919293949281935b610a93876106cf565b5151851015610ad257610ac6610acc91633b9aca006108598a6108528f6103338d610abf8e80946106f2565b51946106f2565b946106aa565b93610a8a565b610ae9929695919450989692986103ad828a6106f2565b919093610a6f56fea2646970667358221220d93bab15c7a455b7f85b383a066cc1720846c31055c60f0509c3dd83d9493f5764736f6c63430008110033",
  "devdoc": {
    "kind": "dev",
    "methods": {
      "fit(int256[][],int256[],int256,uint256,int256)": {
        "params": {
          "X": "- The training features.",
          "y": "- The training labels."
        }
      },
      "predict(int256[][],int256,int256[])": {
        "params": {
          "X": "- The input features."
        }
      }
    },
    "version": 1
  },
  "userdoc": {
    "kind": "user",
    "methods": {
      "fit(int256[][],int256[],int256,uint256,int256)": {
        "notice": "Fits the linear regression model to the training data"
      },
      "predict(int256[][],int256,int256[])": {
        "notice": "Predicts the labels for the given input data"
      }
    },
    "version": 1
  },
  "storageLayout": {
    "storage": [
      {
        "astId": 2549,
        "contract": "contracts/LinearRegression.sol:LinearRegression",
        "label": "dataLayer",
        "offset": 0,
        "slot": "0",
        "type": "t_contract(DataLayer)1533"
      }
    ],
    "types": {
      "t_contract(DataLayer)1533": {
        "encoding": "inplace",
        "label": "contract DataLayer",
        "numberOfBytes": "20"
      }
    }
  }
}