{
  "address": "0x602a0a7D8759040D70cD5bb9A95Dd0649E99eEA1",
  "abi": [
    {
      "inputs": [
        {
          "internalType": "contract DataLayer",
          "name": "_dataLayer",
          "type": "address"
        }
      ],
      "stateMutability": "nonpayable",
      "type": "constructor"
    },
    {
      "inputs": [
        {
          "internalType": "bytes32",
          "name": "schemaName",
          "type": "bytes32"
        },
        {
          "internalType": "uint256",
          "name": "threshold",
          "type": "uint256"
        }
      ],
      "name": "getAnomalyDetection",
      "outputs": [
        {
          "internalType": "uint256[][]",
          "name": "",
          "type": "uint256[][]"
        }
      ],
      "stateMutability": "view",
      "type": "function"
    },
    {
      "inputs": [
        {
          "internalType": "uint256[][]",
          "name": "analyticsData",
          "type": "uint256[][]"
        },
        {
          "internalType": "uint256",
          "name": "threshold",
          "type": "uint256"
        }
      ],
      "name": "getAnomalyDetectionOffChainData",
      "outputs": [
        {
          "internalType": "uint256[][]",
          "name": "",
          "type": "uint256[][]"
        }
      ],
      "stateMutability": "pure",
      "type": "function"
    }
  ],
  "transactionHash": "0x871df5decfebba303f145c74850ddc188ba8b2de4470df5067c8f72ac89ea648",
  "args": [
    "0xa0258F0A0835A82163D855aD239C0Da8b304c0b3"
  ],
  "numDeployments": 1,
  "solcInputHash": "fa3aaec5169ad7d016de55343ed1c4dd",
  "bytecode": "0x60803461007457601f6109ad38819003918201601f19168301916001600160401b038311848410176100795780849260209460405283398101031261007457516001600160a01b0381169081900361007457600080546001600160a01b03191691909117905560405161091d90816100908239f35b600080fd5b634e487b7160e01b600052604160045260246000fdfe60806040818152600436101561001457600080fd5b600091823560e01c908163530ce0ad146101695750639a593a801461003857600080fd5b346101655780600319360112610165576004359167ffffffffffffffff808411610165573660238501121561016557836004013591610076836103c2565b916100838551938461038a565b83835260209081840160249586600591821b8a01019236841161016157878a01925b8484106100e0576100dc8a6100d18b8b6100be816106db565b9135916100cb818361079f565b91610478565b9051918291826102f8565b0390f35b833582811161015d578b013660438201121561015d578981013590610104826103c2565b916101118d51938461038a565b8083528883019060448091881b8401019236841161015957908a9492959391015b8181106101495750508293508152019301926100a5565b80358652948401948a9401610132565b8b80fd5b8780fd5b8580fd5b5080fd5b9050346102e957816003193601126102e9578254630596815760e21b825260048035908301528390829060249082906001600160a01b03165afa9283156102ed5780936101d1575b6100dc836100d1866101c2816106db565b90602435916100cb818361079f565b9092503d8082853e6101e3818561038a565b83019260209081818603126102e957805167ffffffffffffffff918282116102e557019085601f830112156102e15781519561021e876103c2565b9661022b8751988961038a565b8088528488019285600592831b8601019483861161015d57868101945b868610610263575050505050505050506100d16100dc6101b1565b85518381116102dd57820185603f820112156102dd578881015190610287826103c2565b916102948d51938461038a565b8083528c8b840191881b830101918883116102d957918d8c94929593015b8181106102c9575050829350815201950194610248565b80518652948401948c94016102b2565b8c80fd5b8980fd5b8380fd5b8480fd5b8280fd5b8251903d90823e3d90fd5b602080820190808352835180925260408301928160408460051b830101950193600080925b85841061032e575050505050505090565b9091929380959697603f1983820301855288519082808351928381520192019085905b80821061037157505050908060019299019401940192959493919061031d565b9193806001929486518152019401920188939291610351565b90601f8019910116810190811067ffffffffffffffff8211176103ac57604052565b634e487b7160e01b600052604160045260246000fd5b67ffffffffffffffff81116103ac5760051b60200190565b906103e4826103c2565b6103f1604051918261038a565b8281528092610402601f19916103c2565b0190602036910137565b80516001101561041c5760400190565b634e487b7160e01b600052603260045260246000fd5b805182101561041c5760209160051b010190565b60001981146104555760010190565b634e487b7160e01b600052601160045260246000fd5b9190820180921161045557565b91909161048581516103da565b9361048f8261040c565b515190600093600195869384975b610538575b50505050509091506104b3826103c2565b926104c1604051948561038a565b828452601f196104d0846103c2565b0160005b81811061052757505060005b8381106104ee575050505090565b806105066104ff6105229385610432565b5185610432565b516105118288610432565b5261051c8187610432565b50610446565b6104e0565b8060606020809389010152016104d4565b8551881015610594576105588484846105518c8b610432565b51856105b9565b610571575b61056985969798610446565b97969561049d565b87610580888b99979899610432565b52858501809511610455579395949361055d565b6104a2565b9190820391821161045557565b8181029291811591840414171561045557565b939291848251036106765760005b8581106105d957505050505050600090565b6105e38184610432565b516105ee8284610432565b511015610659576106146106028285610432565b5161060d8385610432565b5190610599565b6064908181029181830414901517156104555761063b6106348387610432565b51876105a6565b1061064e5761064990610446565b6105c7565b505050505050600190565b6106716106668284610432565b5161060d8386610432565b610614565b60405162461bcd60e51b815260206004820152601b60248201527f496e636f7272656374206e756d626572206f6620636f6c756d6e7300000000006044820152606490fd5b81156106c5570490565b634e487b7160e01b600052601260045260246000fd5b6106e48161040c565b5151906106f0826103da565b9060005b81518110156107575760005b848110610716575061071190610446565b6106f4565b806107426107316107529361072b8688610432565b51610432565b5161073c8388610432565b5161046b565b61074c8287610432565b52610446565b610700565b50919091610764826103da565b9260005b838110610776575050505090565b8061079061078761079a9385610432565b518551906106bb565b61074c8288610432565b610768565b6107a88161040c565b5151916107b4836103da565b9160005b815181101561085c5760005b8581106107da57506107d590610446565b6107b8565b806107ec6108309261072b8587610432565b516107f78287610432565b511015610835576107906108266108206108158461072b888a610432565b5161060d858a610432565b806105a6565b61073c8389610432565b6107c4565b6107906108266108576108488489610432565b5161060d8561072b898b610432565b610820565b50905091909161086b826103da565b9260005b83811061087d575050505090565b61089361088a8284610432565b518451906106bb565b600180820180831161045557819392911c815b8282106108c35750506108be925061074c8288610432565b61086f565b915091926108da836108d581856106bb565b61046b565b811c9193929190936108a656fea2646970667358221220098328ab77edb908d6761019b6b58239ca59b25e3cc599e09888523f045de3c864736f6c63430008110033",
  "devdoc": {
    "kind": "dev",
    "methods": {},
    "version": 1
  },
  "userdoc": {
    "kind": "user",
    "methods": {},
    "version": 1
  },
  "storageLayout": {
    "storage": [
      {
        "astId": 140,
        "contract": "contracts/AnomalyDetection.sol:AnomalyDetection",
        "label": "dataLayer",
        "offset": 0,
        "slot": "0",
        "type": "t_contract(DataLayer)1579"
      }
    ],
    "types": {
      "t_contract(DataLayer)1579": {
        "encoding": "inplace",
        "label": "contract DataLayer",
        "numberOfBytes": "20"
      }
    }
  }
}