{
  "address": "0xB9672Bb2072D1ed1644343344d9B963b2a4f4d67",
  "abi": [
    {
      "inputs": [
        {
          "internalType": "contract DataLayer",
          "name": "_dataLayer",
          "type": "address"
        }
      ],
      "stateMutability": "nonpayable",
      "type": "constructor"
    },
    {
      "inputs": [
        {
          "internalType": "int256[][]",
          "name": "X",
          "type": "int256[][]"
        },
        {
          "internalType": "int256[]",
          "name": "y",
          "type": "int256[]"
        },
        {
          "internalType": "int256",
          "name": "learningRate",
          "type": "int256"
        },
        {
          "internalType": "uint256",
          "name": "iterations",
          "type": "uint256"
        },
        {
          "internalType": "int256",
          "name": "bias",
          "type": "int256"
        }
      ],
      "name": "fit",
      "outputs": [
        {
          "internalType": "int256[]",
          "name": "",
          "type": "int256[]"
        }
      ],
      "stateMutability": "pure",
      "type": "function"
    },
    {
      "inputs": [
        {
          "internalType": "bytes32",
          "name": "schemaName",
          "type": "bytes32"
        },
        {
          "internalType": "uint256[]",
          "name": "trainingColIndices",
          "type": "uint256[]"
        },
        {
          "internalType": "uint256",
          "name": "labelColIndex",
          "type": "uint256"
        },
        {
          "internalType": "int256[][]",
          "name": "testData",
          "type": "int256[][]"
        },
        {
          "internalType": "int256",
          "name": "learningRate",
          "type": "int256"
        },
        {
          "internalType": "uint256",
          "name": "iterations",
          "type": "uint256"
        },
        {
          "internalType": "int256",
          "name": "bias",
          "type": "int256"
        }
      ],
      "name": "getLogisticRegression",
      "outputs": [
        {
          "internalType": "int256[]",
          "name": "",
          "type": "int256[]"
        }
      ],
      "stateMutability": "view",
      "type": "function"
    },
    {
      "inputs": [
        {
          "internalType": "int256[][]",
          "name": "analyticsData",
          "type": "int256[][]"
        },
        {
          "internalType": "int256[]",
          "name": "labels",
          "type": "int256[]"
        },
        {
          "internalType": "int256[][]",
          "name": "testData",
          "type": "int256[][]"
        },
        {
          "internalType": "int256",
          "name": "learningRate",
          "type": "int256"
        },
        {
          "internalType": "uint256",
          "name": "iterations",
          "type": "uint256"
        },
        {
          "internalType": "int256",
          "name": "bias",
          "type": "int256"
        }
      ],
      "name": "getLogisticRegressionOffChainData",
      "outputs": [
        {
          "internalType": "int256[]",
          "name": "",
          "type": "int256[]"
        }
      ],
      "stateMutability": "pure",
      "type": "function"
    },
    {
      "inputs": [
        {
          "internalType": "int256[][]",
          "name": "X",
          "type": "int256[][]"
        },
        {
          "internalType": "int256[]",
          "name": "weights",
          "type": "int256[]"
        },
        {
          "internalType": "int256",
          "name": "bias",
          "type": "int256"
        }
      ],
      "name": "predict",
      "outputs": [
        {
          "internalType": "int256[]",
          "name": "",
          "type": "int256[]"
        }
      ],
      "stateMutability": "pure",
      "type": "function"
    }
  ],
  "transactionHash": "0xe437c6b9dda59f2ff0ddd3f6624d53abc2ea64e94e6e687dd703c520fd24f050",
  "args": [
    "0xa0258F0A0835A82163D855aD239C0Da8b304c0b3"
  ],
  "numDeployments": 1,
  "solcInputHash": "fa3aaec5169ad7d016de55343ed1c4dd",
  "bytecode": "0x60803461007457601f610c7338819003918201601f19168301916001600160401b038311848410176100795780849260209460405283398101031261007457516001600160a01b0381169081900361007457600080546001600160a01b031916919091179055604051610be390816100908239f35b600080fd5b634e487b7160e01b600052604160045260246000fdfe60806040815260c06040526004908136101561001a57600080fd5b600091823560e01c80631bb0da8a14610482578063348920fa14610428578063a9a56292146100ce5763e689266d1461005257600080fd5b346100ca5760a03660031901126100ca5767ffffffffffffffff81358181116100c65761008290369084016105b7565b936024359182116100c35750926100a26100b3926100bf95369101610554565b6084359160643591604435916107a3565b90515191829182610638565b0390f35b80fd5b8480fd5b8280fd5b5091346100c35760e03660031901126100c35767ffffffffffffffff926024358481116100ca57366023820112156100ca57808201359261010e8461053c565b9261011c8651519485610504565b84845260a09260208452602085016024600597881b830101913683116100c657602401905b828210610418575050506064358781116100ca5761016290369083016105b7565b9660c435958360018060a01b038154169360248a515180968193630596815760e21b83528035908301525afa92831561040d578493610303575b505050928351926101ac8461053c565b936101ba8851519586610504565b8085526101c9601f199161053c565b0190835b8281106102f0575050506101e18451610673565b9360019260443584805b610212575b6100bf8a6100b38b8e61020c828e8e60a43591608435916107a3565b90610a6b565b83518110156102eb57908493929161022b879651610673565b610235828a6106ed565b5261024081896106ed565b5061025e6102588361025284886106ed565b516106ed565b51610701565b610268828b6106ed565b5282865b610285575b5061027b906106a5565b90919293946101eb565b8886979293949596518210156102de57906102d2916102cc82610252876102c66102588e6102bf8f6102b88689926106ed565b51926106ed565b51906106ed565b946106ed565b526106a5565b8196959493929161026c565b5095949392919095610271565b6101f0565b81516060878301909101528151016101cd565b909192503d8085833e6103168183610504565b8101908551818303126100c65780519084821161040957019181601f840112156100c6578251916103468361053c565b946103548b51519687610504565b8386528751948580880195851b82010195838711610405578101945b868610610386575050505050505038808061019c565b855183811161040157820184603f82011215610401578a51810151908e6103ac8361053c565b926103ba8251519485610504565b8084528d518401915180918a1b840101928884116103fd5701905b8282106103ed57505050815289519586019501610370565b815181528d5191820191016103d5565b8d80fd5b8980fd5b8880fd5b8580fd5b8851513d86823e3d90fd5b8135815285519182019101610141565b50346100ca5760603660031901126100ca5767ffffffffffffffff81358181116100c65761045990369084016105b7565b936024359182116100c35750926104796100b3926100bf95369101610554565b60443591610a6b565b50346100ca5760c03660031901126100ca5767ffffffffffffffff9080358281116100c6576104b490369083016105b7565b91602435818111610409576104cc9036908401610554565b946044359182116100c357509161020c6104f06100bf96936100b3953691016105b7565b9160a43593849160843591606435916107a3565b90601f8019910116810190811067ffffffffffffffff82111761052657604052565b634e487b7160e01b600052604160045260246000fd5b67ffffffffffffffff81116105265760051b60200190565b81601f820112156105b25780359161056b8361053c565b926105796040519485610504565b808452602092838086019260051b8201019283116105b2578301905b8282106105a3575050505090565b81358152908301908301610595565b600080fd5b9080601f830112156105b2578135906105cf8261053c565b926105dd6040519485610504565b828452602092838086019160051b830101928084116105b257848301915b84831061060b5750505050505090565b823567ffffffffffffffff81116105b257869161062d84848094890101610554565b8152019201916105fb565b6020908160408183019282815285518094520193019160005b82811061065f575050505090565b835185529381019392810192600101610651565b9061067d8261053c565b61068a6040519182610504565b828152809261069b601f199161053c565b0190602036910137565b60001981146106b45760010190565b634e487b7160e01b600052601160045260246000fd5b8051156106d75760200190565b634e487b7160e01b600052603260045260246000fd5b80518210156106d75760209160051b010190565b90633b9aca00918281029281840514901517156106b457565b818102929160008212600160ff1b8214166106b45781840514901517156106b457565b811561075857600160ff1b81146000198314166106b4570590565b634e487b7160e01b600052601260045260246000fd5b919091600083820193841291129080158216911516176106b457565b818103929160001380158285131691841216176106b457565b93929190938051855103610a0a5790936107c66107bf836106ca565b5151610673565b946000935b8085106107db5750505050505090565b6107eb8495979498969851610673565b976107f68651610673565b976108036107bf886106ca565b6000936001995b89518b10156108b5578c90856108208d846106ed565b52865b8d61082d8d6106ca565b515182101561088a5750808d6102cc61087e8f8f633b9aca0091610866876102528861085f6108859c61086d976106ed565b51946106ed565b519061071a565b0561087884896106ed565b5161076e565b91866106ed565b610823565b90506102cc8d6108a981949f6108a3906108af976106ed565b51610b23565b926106ed565b9961080a565b9b5097969098509891909394929860019a5b87518c1015610962576108f08c6108e96108e182886106ed565b5191886106ed565b519061078a565b9860005b6108fd8a6106ca565b515181101561094257808c8f826108a98f8f633b9aca009161092c61093d996102526102cc98610932956106ed565b5161071a565b0561087883866106ed565b6108f4565b509b9a61095a9192996109549161076e565b9a6106a5565b9a97906108c7565b9250979495969098995060005b610978886106ca565b51518110156109ce57806109bf6109af61099f6109986109c9958b6106ed565b518b61071a565b6109a98c51610701565b9061073d565b6109b9838d6106ed565b5161078a565b6102cc828c6106ed565b61096f565b5095935097610a00919296976109f46109ea6109fa938861071a565b6109a98751610701565b9061078a565b956106a5565b93929091926107cb565b60405162461bcd60e51b815260206004820152603360248201527f4665617475726520616e64206c6162656c20617272617973206d7573742068616044820152723b32903a34329039b0b6b2903632b733ba341760691b6064820152608490fd5b9190918051610a7981610673565b936000915b808310610a8d57505050505090565b909192939586916000925b610aa1876106ca565b5151841015610adf57610ad3610ad991633b9aca00610acc8a610866896102528d61085f838f6106ed565b059061076e565b936106a5565b92610a98565b610b1592989350610af9631dcd6500919796929597610b23565b13600090600014610b1e5750633b9aca005b6102cc82896106ed565b91939093610a7e565b610b0b565b633b9aca008060019283925b601e8412610b605750509050610b4481610701565b9181633b9aca0001918212166106b457610b5d9161073d565b90565b610b79610b7083610b809361071a565b6109a986610701565b809361076e565b926001600160ff1b038114610b985784019291610b2f565b60246000634e487b7160e01b81526011600452fdfea2646970667358221220f5127302bfdef55773dd10417e22a6797f1e87b820897a6687ace6433654d10764736f6c63430008110033",
  "devdoc": {
    "kind": "dev",
    "methods": {
      "fit(int256[][],int256[],int256,uint256,int256)": {
        "params": {
          "X": "- The training features.",
          "y": "- The training labels."
        }
      },
      "predict(int256[][],int256[],int256)": {
        "params": {
          "X": "- The input features."
        }
      }
    },
    "version": 1
  },
  "userdoc": {
    "kind": "user",
    "methods": {
      "fit(int256[][],int256[],int256,uint256,int256)": {
        "notice": "Fits the logistic regression model to the training data"
      },
      "predict(int256[][],int256[],int256)": {
        "notice": "Predicts the labels for the given input data"
      }
    },
    "version": 1
  },
  "storageLayout": {
    "storage": [
      {
        "astId": 3159,
        "contract": "contracts/LogisticRegression.sol:LogisticRegression",
        "label": "dataLayer",
        "offset": 0,
        "slot": "0",
        "type": "t_contract(DataLayer)1579"
      }
    ],
    "types": {
      "t_contract(DataLayer)1579": {
        "encoding": "inplace",
        "label": "contract DataLayer",
        "numberOfBytes": "20"
      }
    }
  }
}